{
  "contractName": "DEX",
  "abi": [
    {
      "anonymous": false,
      "inputs": [
        {
          "indexed": true,
          "internalType": "address",
          "name": "previousOwner",
          "type": "address"
        },
        {
          "indexed": true,
          "internalType": "address",
          "name": "newOwner",
          "type": "address"
        }
      ],
      "name": "OwnershipTransferred",
      "type": "event"
    },
    {
      "inputs": [
        {
          "internalType": "bytes32",
          "name": "ticker",
          "type": "bytes32"
        },
        {
          "internalType": "address",
          "name": "tokenAddress",
          "type": "address"
        }
      ],
      "name": "addToken",
      "outputs": [],
      "stateMutability": "nonpayable",
      "type": "function"
    },
    {
      "inputs": [
        {
          "internalType": "address",
          "name": "",
          "type": "address"
        },
        {
          "internalType": "bytes32",
          "name": "",
          "type": "bytes32"
        }
      ],
      "name": "balances",
      "outputs": [
        {
          "internalType": "uint256",
          "name": "",
          "type": "uint256"
        }
      ],
      "stateMutability": "view",
      "type": "function",
      "constant": true
    },
    {
      "inputs": [
        {
          "internalType": "uint256",
          "name": "amount",
          "type": "uint256"
        },
        {
          "internalType": "bytes32",
          "name": "ticker",
          "type": "bytes32"
        }
      ],
      "name": "deposit",
      "outputs": [],
      "stateMutability": "nonpayable",
      "type": "function"
    },
    {
      "inputs": [],
      "name": "depositEth",
      "outputs": [],
      "stateMutability": "payable",
      "type": "function",
      "payable": true
    },
    {
      "inputs": [],
      "name": "nextOrderId",
      "outputs": [
        {
          "internalType": "uint256",
          "name": "",
          "type": "uint256"
        }
      ],
      "stateMutability": "view",
      "type": "function",
      "constant": true
    },
    {
      "inputs": [
        {
          "internalType": "bytes32",
          "name": "",
          "type": "bytes32"
        },
        {
          "internalType": "uint256",
          "name": "",
          "type": "uint256"
        },
        {
          "internalType": "uint256",
          "name": "",
          "type": "uint256"
        }
      ],
      "name": "orderBook",
      "outputs": [
        {
          "internalType": "uint256",
          "name": "id",
          "type": "uint256"
        },
        {
          "internalType": "address",
          "name": "trader",
          "type": "address"
        },
        {
          "internalType": "enum DEX.Side",
          "name": "side",
          "type": "uint8"
        },
        {
          "internalType": "bytes32",
          "name": "ticker",
          "type": "bytes32"
        },
        {
          "internalType": "uint256",
          "name": "amount",
          "type": "uint256"
        },
        {
          "internalType": "uint256",
          "name": "price",
          "type": "uint256"
        }
      ],
      "stateMutability": "view",
      "type": "function",
      "constant": true
    },
    {
      "inputs": [],
      "name": "owner",
      "outputs": [
        {
          "internalType": "address",
          "name": "",
          "type": "address"
        }
      ],
      "stateMutability": "view",
      "type": "function",
      "constant": true
    },
    {
      "inputs": [],
      "name": "renounceOwnership",
      "outputs": [],
      "stateMutability": "nonpayable",
      "type": "function"
    },
    {
      "inputs": [
        {
          "internalType": "uint256",
          "name": "",
          "type": "uint256"
        }
      ],
      "name": "tokenList",
      "outputs": [
        {
          "internalType": "bytes32",
          "name": "",
          "type": "bytes32"
        }
      ],
      "stateMutability": "view",
      "type": "function",
      "constant": true
    },
    {
      "inputs": [
        {
          "internalType": "bytes32",
          "name": "",
          "type": "bytes32"
        }
      ],
      "name": "tokenMapping",
      "outputs": [
        {
          "internalType": "bytes32",
          "name": "ticker",
          "type": "bytes32"
        },
        {
          "internalType": "address",
          "name": "tokenAddress",
          "type": "address"
        }
      ],
      "stateMutability": "view",
      "type": "function",
      "constant": true
    },
    {
      "inputs": [
        {
          "internalType": "address",
          "name": "newOwner",
          "type": "address"
        }
      ],
      "name": "transferOwnership",
      "outputs": [],
      "stateMutability": "nonpayable",
      "type": "function"
    },
    {
      "inputs": [
        {
          "internalType": "uint256",
          "name": "amount",
          "type": "uint256"
        },
        {
          "internalType": "bytes32",
          "name": "ticker",
          "type": "bytes32"
        }
      ],
      "name": "withdraw",
      "outputs": [],
      "stateMutability": "nonpayable",
      "type": "function"
    },
    {
      "inputs": [
        {
          "internalType": "uint256",
          "name": "amount",
          "type": "uint256"
        }
      ],
      "name": "withdrawEth",
      "outputs": [],
      "stateMutability": "nonpayable",
      "type": "function"
    },
    {
      "inputs": [
        {
          "internalType": "bytes32",
          "name": "ticker",
          "type": "bytes32"
        },
        {
          "internalType": "enum DEX.Side",
          "name": "side",
          "type": "uint8"
        }
      ],
      "name": "getOrderBook",
      "outputs": [
        {
          "components": [
            {
              "internalType": "uint256",
              "name": "id",
              "type": "uint256"
            },
            {
              "internalType": "address",
              "name": "trader",
              "type": "address"
            },
            {
              "internalType": "enum DEX.Side",
              "name": "side",
              "type": "uint8"
            },
            {
              "internalType": "bytes32",
              "name": "ticker",
              "type": "bytes32"
            },
            {
              "internalType": "uint256",
              "name": "amount",
              "type": "uint256"
            },
            {
              "internalType": "uint256",
              "name": "price",
              "type": "uint256"
            }
          ],
          "internalType": "struct DEX.Order[]",
          "name": "",
          "type": "tuple[]"
        }
      ],
      "stateMutability": "view",
      "type": "function",
      "constant": true
    },
    {
      "inputs": [
        {
          "internalType": "enum DEX.Side",
          "name": "side",
          "type": "uint8"
        },
        {
          "internalType": "bytes32",
          "name": "ticker",
          "type": "bytes32"
        },
        {
          "internalType": "uint256",
          "name": "amount",
          "type": "uint256"
        },
        {
          "internalType": "uint256",
          "name": "price",
          "type": "uint256"
        }
      ],
      "name": "createLimitOrder",
      "outputs": [],
      "stateMutability": "nonpayable",
      "type": "function"
    }
  ],
  "bytecode": "0x6080604052600060055534801561001557600080fd5b5060006100266100c960201b60201c565b9050806000806101000a81548173ffffffffffffffffffffffffffffffffffffffff021916908373ffffffffffffffffffffffffffffffffffffffff1602179055508073ffffffffffffffffffffffffffffffffffffffff16600073ffffffffffffffffffffffffffffffffffffffff167f8be0079c531659141344cd1fd0a4f28419497f9722a3daafe3b4186f6b6457e060405160405180910390a3506100d1565b600033905090565b612ca380620000e16000396000f3fe6080604052600436106100e85760003560e01c80638da5cb5b1161008a578063ba58ea6811610059578063ba58ea68146102d9578063c311d04914610316578063c9630cb01461033f578063f2fde38b14610368576100e8565b80638da5cb5b1461021f5780639776aacf1461024a5780639ead722214610273578063a8d2021a146102b0576100e8565b8063439370b1116100c6578063439370b114610197578063667cb4ba146101a15780636f3b62f9146101df578063715018a614610208576100e8565b80630bb431b6146100ed5780631f14df691461012f5780632a58b3301461016c575b600080fd5b3480156100f957600080fd5b50610114600480360381019061010f91906123ba565b610391565b6040516101269695949392919061290b565b60405180910390f35b34801561013b57600080fd5b50610156600480360381019061015191906122b4565b610424565b60405161016391906128f0565b60405180910390f35b34801561017857600080fd5b50610181610449565b60405161018e91906128f0565b60405180910390f35b61019f61044f565b005b3480156101ad57600080fd5b506101c860048036038101906101c39190612319565b610548565b6040516101d6929190612847565b60405180910390f35b3480156101eb57600080fd5b5061020660048036038101906102019190612409565b61058c565b005b34801561021457600080fd5b5061021d61142c565b005b34801561022b57600080fd5b50610234611566565b604051610241919061278f565b60405180910390f35b34801561025657600080fd5b50610271600480360381019061026c9190612342565b61158f565b005b34801561027f57600080fd5b5061029a6004803603810190610295919061246c565b6116ca565b6040516102a7919061282c565b60405180910390f35b3480156102bc57600080fd5b506102d760048036038101906102d29190612495565b6116ee565b005b3480156102e557600080fd5b5061030060048036038101906102fb919061237e565b6119a8565b60405161030d919061280a565b60405180910390f35b34801561032257600080fd5b5061033d6004803603810190610338919061246c565b611b69565b005b34801561034b57600080fd5b5061036660048036038101906103619190612495565b611d7f565b005b34801561037457600080fd5b5061038f600480360381019061038a919061228b565b611fa8565b005b600460205282600052604060002060205281600052604060002081815481106103b957600080fd5b906000526020600020906005020160009250925050508060000154908060010160009054906101000a900473ffffffffffffffffffffffffffffffffffffffff16908060010160149054906101000a900460ff16908060020154908060030154908060040154905086565b6003602052816000526040600020602052806000526040600020600091509150505481565b60055481565b6104d234600360003373ffffffffffffffffffffffffffffffffffffffff1673ffffffffffffffffffffffffffffffffffffffff16815260200190815260200160002060007f455448000000000000000000000000000000000000000000000000000000000081526020019081526020016000205461215190919063ffffffff16565b600360003373ffffffffffffffffffffffffffffffffffffffff1673ffffffffffffffffffffffffffffffffffffffff16815260200190815260200160002060007f4554480000000000000000000000000000000000000000000000000000000000815260200190815260200160002081905550565b60016020528060005260406000206000915090508060000154908060010160009054906101000a900473ffffffffffffffffffffffffffffffffffffffff16905082565b600060018111156105c6577f4e487b7100000000000000000000000000000000000000000000000000000000600052602160045260246000fd5b8460018111156105ff577f4e487b7100000000000000000000000000000000000000000000000000000000600052602160045260246000fd5b141561069957610618818361216790919063ffffffff16565b600360003373ffffffffffffffffffffffffffffffffffffffff1673ffffffffffffffffffffffffffffffffffffffff16815260200190815260200160002060007f4554480000000000000000000000000000000000000000000000000000000000815260200190815260200160002054101561069457600080fd5b610770565b6001808111156106d2577f4e487b7100000000000000000000000000000000000000000000000000000000600052602160045260246000fd5b84600181111561070b577f4e487b7100000000000000000000000000000000000000000000000000000000600052602160045260246000fd5b141561076f5781600360003373ffffffffffffffffffffffffffffffffffffffff1673ffffffffffffffffffffffffffffffffffffffff168152602001908152602001600020600085815260200190815260200160002054101561076e57600080fd5b5b5b60006004600085815260200190815260200160002060008660018111156107c0577f4e487b7100000000000000000000000000000000000000000000000000000000600052602160045260246000fd5b81526020019081526020016000209050806040518060c0016040528060055481526020013373ffffffffffffffffffffffffffffffffffffffff168152602001876001811115610839577f4e487b7100000000000000000000000000000000000000000000000000000000600052602160045260246000fd5b81526020018681526020018581526020018481525090806001815401808255809150506001900390600052602060002090600502016000909190919091506000820151816000015560208201518160010160006101000a81548173ffffffffffffffffffffffffffffffffffffffff021916908373ffffffffffffffffffffffffffffffffffffffff16021790555060408201518160010160146101000a81548160ff02191690836001811115610919577f4e487b7100000000000000000000000000000000000000000000000000000000600052602160045260246000fd5b0217905550606082015181600201556080820151816003015560a082015181600401555050600080828054905011610952576000610964565b600182805490506109639190612a71565b5b9050600060018111156109a0577f4e487b7100000000000000000000000000000000000000000000000000000000600052602160045260246000fd5b8660018111156109d9577f4e487b7100000000000000000000000000000000000000000000000000000000600052602160045260246000fd5b1415610ebb576109e761219b565b5b6000821115610eb557828281548110610a2a577f4e487b7100000000000000000000000000000000000000000000000000000000600052603260045260246000fd5b90600052602060002090600502016004015483600184610a4a9190612a71565b81548110610a81577f4e487b7100000000000000000000000000000000000000000000000000000000600052603260045260246000fd5b9060005260206000209060050201600401541115610a9e57610eb5565b82600183610aac9190612a71565b81548110610ae3577f4e487b7100000000000000000000000000000000000000000000000000000000600052603260045260246000fd5b90600052602060002090600502016040518060c0016040529081600082015481526020016001820160009054906101000a900473ffffffffffffffffffffffffffffffffffffffff1673ffffffffffffffffffffffffffffffffffffffff1673ffffffffffffffffffffffffffffffffffffffff1681526020016001820160149054906101000a900460ff166001811115610ba7577f4e487b7100000000000000000000000000000000000000000000000000000000600052602160045260246000fd5b6001811115610bdf577f4e487b7100000000000000000000000000000000000000000000000000000000600052602160045260246000fd5b815260200160028201548152602001600382015481526020016004820154815250509050828281548110610c3c577f4e487b7100000000000000000000000000000000000000000000000000000000600052603260045260246000fd5b906000526020600020906005020183600184610c589190612a71565b81548110610c8f577f4e487b7100000000000000000000000000000000000000000000000000000000600052603260045260246000fd5b9060005260206000209060050201600082015481600001556001820160009054906101000a900473ffffffffffffffffffffffffffffffffffffffff168160010160006101000a81548173ffffffffffffffffffffffffffffffffffffffff021916908373ffffffffffffffffffffffffffffffffffffffff1602179055506001820160149054906101000a900460ff168160010160146101000a81548160ff02191690836001811115610d6c577f4e487b7100000000000000000000000000000000000000000000000000000000600052602160045260246000fd5b021790555060028201548160020155600382015481600301556004820154816004015590505080838381548110610dcc577f4e487b7100000000000000000000000000000000000000000000000000000000600052603260045260246000fd5b90600052602060002090600502016000820151816000015560208201518160010160006101000a81548173ffffffffffffffffffffffffffffffffffffffff021916908373ffffffffffffffffffffffffffffffffffffffff16021790555060408201518160010160146101000a81548160ff02191690836001811115610e7c577f4e487b7100000000000000000000000000000000000000000000000000000000600052602160045260246000fd5b0217905550606082015181600201556080820151816003015560a082015181600401559050508180610ead90612b1c565b9250506109e8565b5061140c565b600180811115610ef4577f4e487b7100000000000000000000000000000000000000000000000000000000600052602160045260246000fd5b866001811115610f2d577f4e487b7100000000000000000000000000000000000000000000000000000000600052602160045260246000fd5b141561140b57610f3b61219b565b5b600082111561140957828281548110610f7e577f4e487b7100000000000000000000000000000000000000000000000000000000600052603260045260246000fd5b90600052602060002090600502016004015483600184610f9e9190612a71565b81548110610fd5577f4e487b7100000000000000000000000000000000000000000000000000000000600052603260045260246000fd5b9060005260206000209060050201600401541015610ff257611409565b826001836110009190612a71565b81548110611037577f4e487b7100000000000000000000000000000000000000000000000000000000600052603260045260246000fd5b90600052602060002090600502016040518060c0016040529081600082015481526020016001820160009054906101000a900473ffffffffffffffffffffffffffffffffffffffff1673ffffffffffffffffffffffffffffffffffffffff1673ffffffffffffffffffffffffffffffffffffffff1681526020016001820160149054906101000a900460ff1660018111156110fb577f4e487b7100000000000000000000000000000000000000000000000000000000600052602160045260246000fd5b6001811115611133577f4e487b7100000000000000000000000000000000000000000000000000000000600052602160045260246000fd5b815260200160028201548152602001600382015481526020016004820154815250509050828281548110611190577f4e487b7100000000000000000000000000000000000000000000000000000000600052603260045260246000fd5b9060005260206000209060050201836001846111ac9190612a71565b815481106111e3577f4e487b7100000000000000000000000000000000000000000000000000000000600052603260045260246000fd5b9060005260206000209060050201600082015481600001556001820160009054906101000a900473ffffffffffffffffffffffffffffffffffffffff168160010160006101000a81548173ffffffffffffffffffffffffffffffffffffffff021916908373ffffffffffffffffffffffffffffffffffffffff1602179055506001820160149054906101000a900460ff168160010160146101000a81548160ff021916908360018111156112c0577f4e487b7100000000000000000000000000000000000000000000000000000000600052602160045260246000fd5b021790555060028201548160020155600382015481600301556004820154816004015590505080838381548110611320577f4e487b7100000000000000000000000000000000000000000000000000000000600052603260045260246000fd5b90600052602060002090600502016000820151816000015560208201518160010160006101000a81548173ffffffffffffffffffffffffffffffffffffffff021916908373ffffffffffffffffffffffffffffffffffffffff16021790555060408201518160010160146101000a81548160ff021916908360018111156113d0577f4e487b7100000000000000000000000000000000000000000000000000000000600052602160045260246000fd5b0217905550606082015181600201556080820151816003015560a08201518160040155905050818061140190612b1c565b925050610f3c565b505b5b6005600081548092919061141f90612b46565b9190505550505050505050565b61143461217d565b73ffffffffffffffffffffffffffffffffffffffff16611452611566565b73ffffffffffffffffffffffffffffffffffffffff16146114a8576040517f08c379a000000000000000000000000000000000000000000000000000000000815260040161149f906128b0565b60405180910390fd5b600073ffffffffffffffffffffffffffffffffffffffff1660008054906101000a900473ffffffffffffffffffffffffffffffffffffffff1673ffffffffffffffffffffffffffffffffffffffff167f8be0079c531659141344cd1fd0a4f28419497f9722a3daafe3b4186f6b6457e060405160405180910390a360008060006101000a81548173ffffffffffffffffffffffffffffffffffffffff021916908373ffffffffffffffffffffffffffffffffffffffff160217905550565b60008060009054906101000a900473ffffffffffffffffffffffffffffffffffffffff16905090565b61159761217d565b73ffffffffffffffffffffffffffffffffffffffff166115b5611566565b73ffffffffffffffffffffffffffffffffffffffff161461160b576040517f08c379a0000000000000000000000000000000000000000000000000000000008152600401611602906128b0565b60405180910390fd5b60405180604001604052808381526020018273ffffffffffffffffffffffffffffffffffffffff16815250600160008481526020019081526020016000206000820151816000015560208201518160010160006101000a81548173ffffffffffffffffffffffffffffffffffffffff021916908373ffffffffffffffffffffffffffffffffffffffff16021790555090505060028290806001815401808255809150506001900390600052602060002001600090919091909150555050565b600281815481106116da57600080fd5b906000526020600020016000915090505481565b80600073ffffffffffffffffffffffffffffffffffffffff166001600083815260200190815260200160002060010160009054906101000a900473ffffffffffffffffffffffffffffffffffffffff1673ffffffffffffffffffffffffffffffffffffffff161415611795576040517f08c379a000000000000000000000000000000000000000000000000000000000815260040161178c906128d0565b60405180910390fd5b82600360003373ffffffffffffffffffffffffffffffffffffffff1673ffffffffffffffffffffffffffffffffffffffff1681526020019081526020016000206000848152602001908152602001600020541015611828576040517f08c379a000000000000000000000000000000000000000000000000000000000815260040161181f90612890565b60405180910390fd5b61188b83600360003373ffffffffffffffffffffffffffffffffffffffff1673ffffffffffffffffffffffffffffffffffffffff16815260200190815260200160002060008581526020019081526020016000205461218590919063ffffffff16565b600360003373ffffffffffffffffffffffffffffffffffffffff1673ffffffffffffffffffffffffffffffffffffffff1681526020019081526020016000206000848152602001908152602001600020819055506001600083815260200190815260200160002060010160009054906101000a900473ffffffffffffffffffffffffffffffffffffffff1673ffffffffffffffffffffffffffffffffffffffff1663a9059cbb33856040518363ffffffff1660e01b81526004016119509291906127e1565b602060405180830381600087803b15801561196a57600080fd5b505af115801561197e573d6000803e3d6000fd5b505050506040513d601f19601f820116820180604052508101906119a291906122f0565b50505050565b60606004600084815260200190815260200160002060008360018111156119f8577f4e487b7100000000000000000000000000000000000000000000000000000000600052602160045260246000fd5b8152602001908152602001600020805480602002602001604051908101604052809291908181526020016000905b82821015611b5d57838290600052602060002090600502016040518060c0016040529081600082015481526020016001820160009054906101000a900473ffffffffffffffffffffffffffffffffffffffff1673ffffffffffffffffffffffffffffffffffffffff1673ffffffffffffffffffffffffffffffffffffffff1681526020016001820160149054906101000a900460ff166001811115611af4577f4e487b7100000000000000000000000000000000000000000000000000000000600052602160045260246000fd5b6001811115611b2c577f4e487b7100000000000000000000000000000000000000000000000000000000600052602160045260246000fd5b8152602001600282015481526020016003820154815260200160048201548152505081526020019060010190611a26565b50505050905092915050565b80600360003373ffffffffffffffffffffffffffffffffffffffff1673ffffffffffffffffffffffffffffffffffffffff16815260200190815260200160002060007f45544800000000000000000000000000000000000000000000000000000000008152602001908152602001600020541015611c1c576040517f08c379a0000000000000000000000000000000000000000000000000000000008152600401611c1390612890565b60405180910390fd5b611c9f81600360003373ffffffffffffffffffffffffffffffffffffffff1673ffffffffffffffffffffffffffffffffffffffff16815260200190815260200160002060007f455448000000000000000000000000000000000000000000000000000000000081526020019081526020016000205461218590919063ffffffff16565b600360003373ffffffffffffffffffffffffffffffffffffffff1673ffffffffffffffffffffffffffffffffffffffff16815260200190815260200160002060007f45544800000000000000000000000000000000000000000000000000000000008152602001908152602001600020819055503373ffffffffffffffffffffffffffffffffffffffff1681604051611d379061277a565b60006040518083038185875af1925050503d8060008114611d74576040519150601f19603f3d011682016040523d82523d6000602084013e611d79565b606091505b50505050565b80600073ffffffffffffffffffffffffffffffffffffffff166001600083815260200190815260200160002060010160009054906101000a900473ffffffffffffffffffffffffffffffffffffffff1673ffffffffffffffffffffffffffffffffffffffff161415611e26576040517f08c379a0000000000000000000000000000000000000000000000000000000008152600401611e1d906128d0565b60405180910390fd5b611e8983600360003373ffffffffffffffffffffffffffffffffffffffff1673ffffffffffffffffffffffffffffffffffffffff16815260200190815260200160002060008581526020019081526020016000205461215190919063ffffffff16565b600360003373ffffffffffffffffffffffffffffffffffffffff1673ffffffffffffffffffffffffffffffffffffffff1681526020019081526020016000206000848152602001908152602001600020819055506001600083815260200190815260200160002060010160009054906101000a900473ffffffffffffffffffffffffffffffffffffffff1673ffffffffffffffffffffffffffffffffffffffff166323b872dd3330866040518463ffffffff1660e01b8152600401611f50939291906127aa565b602060405180830381600087803b158015611f6a57600080fd5b505af1158015611f7e573d6000803e3d6000fd5b505050506040513d601f19601f82011682018060405250810190611fa291906122f0565b50505050565b611fb061217d565b73ffffffffffffffffffffffffffffffffffffffff16611fce611566565b73ffffffffffffffffffffffffffffffffffffffff1614612024576040517f08c379a000000000000000000000000000000000000000000000000000000000815260040161201b906128b0565b60405180910390fd5b600073ffffffffffffffffffffffffffffffffffffffff168173ffffffffffffffffffffffffffffffffffffffff161415612094576040517f08c379a000000000000000000000000000000000000000000000000000000000815260040161208b90612870565b60405180910390fd5b8073ffffffffffffffffffffffffffffffffffffffff1660008054906101000a900473ffffffffffffffffffffffffffffffffffffffff1673ffffffffffffffffffffffffffffffffffffffff167f8be0079c531659141344cd1fd0a4f28419497f9722a3daafe3b4186f6b6457e060405160405180910390a3806000806101000a81548173ffffffffffffffffffffffffffffffffffffffff021916908373ffffffffffffffffffffffffffffffffffffffff16021790555050565b6000818361215f91906129c1565b905092915050565b600081836121759190612a17565b905092915050565b600033905090565b600081836121939190612a71565b905092915050565b6040518060c0016040528060008152602001600073ffffffffffffffffffffffffffffffffffffffff16815260200160006001811115612204577f4e487b7100000000000000000000000000000000000000000000000000000000600052602160045260246000fd5b81526020016000801916815260200160008152602001600081525090565b60008135905061223181612c01565b92915050565b60008151905061224681612c18565b92915050565b60008135905061225b81612c2f565b92915050565b60008135905061227081612c46565b92915050565b60008135905061228581612c56565b92915050565b60006020828403121561229d57600080fd5b60006122ab84828501612222565b91505092915050565b600080604083850312156122c757600080fd5b60006122d585828601612222565b92505060206122e68582860161224c565b9150509250929050565b60006020828403121561230257600080fd5b600061231084828501612237565b91505092915050565b60006020828403121561232b57600080fd5b60006123398482850161224c565b91505092915050565b6000806040838503121561235557600080fd5b60006123638582860161224c565b925050602061237485828601612222565b9150509250929050565b6000806040838503121561239157600080fd5b600061239f8582860161224c565b92505060206123b085828601612261565b9150509250929050565b6000806000606084860312156123cf57600080fd5b60006123dd8682870161224c565b93505060206123ee86828701612276565b92505060406123ff86828701612276565b9150509250925092565b6000806000806080858703121561241f57600080fd5b600061242d87828801612261565b945050602061243e8782880161224c565b935050604061244f87828801612276565b925050606061246087828801612276565b91505092959194509250565b60006020828403121561247e57600080fd5b600061248c84828501612276565b91505092915050565b600080604083850312156124a857600080fd5b60006124b685828601612276565b92505060206124c78582860161224c565b9150509250929050565b60006124dd83836126e1565b60c08301905092915050565b6124f281612aa5565b82525050565b61250181612aa5565b82525050565b60006125128261297c565b61251c8185612994565b93506125278361296c565b8060005b8381101561255857815161253f88826124d1565b975061254a83612987565b92505060018101905061252b565b5085935050505092915050565b61256e81612ac3565b82525050565b61257d81612ac3565b82525050565b61258c81612b0a565b82525050565b61259b81612b0a565b82525050565b60006125ae6026836129b0565b91507f4f776e61626c653a206e6577206f776e657220697320746865207a65726f206160008301527f64647265737300000000000000000000000000000000000000000000000000006020830152604082019050919050565b60006126146012836129b0565b91507f496e7375666669656e742062616c616e636500000000000000000000000000006000830152602082019050919050565b60006126546020836129b0565b91507f4f776e61626c653a2063616c6c6572206973206e6f7420746865206f776e65726000830152602082019050919050565b60006126946000836129a5565b9150600082019050919050565b60006126ae6014836129b0565b91507f746f6b656e20646f6573206e6f742065786973740000000000000000000000006000830152602082019050919050565b60c0820160008201516126f7600085018261275c565b50602082015161270a60208501826124e9565b50604082015161271d6040850182612583565b5060608201516127306060850182612565565b506080820151612743608085018261275c565b5060a082015161275660a085018261275c565b50505050565b61276581612b00565b82525050565b61277481612b00565b82525050565b600061278582612687565b9150819050919050565b60006020820190506127a460008301846124f8565b92915050565b60006060820190506127bf60008301866124f8565b6127cc60208301856124f8565b6127d9604083018461276b565b949350505050565b60006040820190506127f660008301856124f8565b612803602083018461276b565b9392505050565b600060208201905081810360008301526128248184612507565b905092915050565b60006020820190506128416000830184612574565b92915050565b600060408201905061285c6000830185612574565b61286960208301846124f8565b9392505050565b60006020820190508181036000830152612889816125a1565b9050919050565b600060208201905081810360008301526128a981612607565b9050919050565b600060208201905081810360008301526128c981612647565b9050919050565b600060208201905081810360008301526128e9816126a1565b9050919050565b6000602082019050612905600083018461276b565b92915050565b600060c082019050612920600083018961276b565b61292d60208301886124f8565b61293a6040830187612592565b6129476060830186612574565b612954608083018561276b565b61296160a083018461276b565b979650505050505050565b6000819050602082019050919050565b600081519050919050565b6000602082019050919050565b600082825260208201905092915050565b600081905092915050565b600082825260208201905092915050565b60006129cc82612b00565b91506129d783612b00565b9250827fffffffffffffffffffffffffffffffffffffffffffffffffffffffffffffffff03821115612a0c57612a0b612b8f565b5b828201905092915050565b6000612a2282612b00565b9150612a2d83612b00565b9250817fffffffffffffffffffffffffffffffffffffffffffffffffffffffffffffffff0483118215151615612a6657612a65612b8f565b5b828202905092915050565b6000612a7c82612b00565b9150612a8783612b00565b925082821015612a9a57612a99612b8f565b5b828203905092915050565b6000612ab082612ae0565b9050919050565b60008115159050919050565b6000819050919050565b6000819050612adb82612bed565b919050565b600073ffffffffffffffffffffffffffffffffffffffff82169050919050565b6000819050919050565b6000612b1582612acd565b9050919050565b6000612b2782612b00565b91506000821415612b3b57612b3a612b8f565b5b600182039050919050565b6000612b5182612b00565b91507fffffffffffffffffffffffffffffffffffffffffffffffffffffffffffffffff821415612b8457612b83612b8f565b5b600182019050919050565b7f4e487b7100000000000000000000000000000000000000000000000000000000600052601160045260246000fd5b7f4e487b7100000000000000000000000000000000000000000000000000000000600052602160045260246000fd5b60028110612bfe57612bfd612bbe565b5b50565b612c0a81612aa5565b8114612c1557600080fd5b50565b612c2181612ab7565b8114612c2c57600080fd5b50565b612c3881612ac3565b8114612c4357600080fd5b50565b60028110612c5357600080fd5b50565b612c5f81612b00565b8114612c6a57600080fd5b5056fea2646970667358221220f345df9216569f0b84e5f9a87749ff1d6dcbd91c44b25d46c3ac5e79ca2d418c64736f6c63430008000033",
  "immutableReferences": {},
  "source": "pragma solidity >=0.6.0 <=0.8.0;\npragma abicoder v2;\nimport \"../node_modules/@openzeppelin/contracts/token/ERC20/IERC20.sol\";\nimport \"../node_modules/@openzeppelin/contracts/utils/math/SafeMath.sol\";\nimport \"./Wallet.sol\";\n\ncontract DEX is Wallet {\n    using SafeMath for uint256;\n\n    enum Side {\n        BUY,\n        SELL\n    }\n    \n    struct Order{\n        uint id;\n        address trader;\n        Side side;\n        bytes32 ticker;\n        uint amount;\n        uint price;\n    }\n\n    mapping( bytes32 => mapping(uint => Order[])) public orderBook;\n    uint public nextOrderId = 0;\n\n    function getOrderBook(bytes32 ticker, Side side) view public returns(Order[] memory){\n        return orderBook[ticker][uint(side)];\n    }\n\n    function createLimitOrder(Side side, bytes32 ticker, uint amount, uint price) public {\n        if(side == Side.BUY){\n            require(balances[msg.sender][\"ETH\"] >= amount.mul(price));\n        } else if (side == Side.SELL){\n            require(balances[msg.sender][ticker] >= amount);\n        }\n\n        Order[] storage order = orderBook[ticker][uint(side)];\n\n        order.push(Order(nextOrderId,msg.sender, side, ticker, amount, price));\n        \n        // if(side == Side.BUY){\n        //     Order memory tempOrder;\n        //     for(uint i=order.length-1; i=1; i--){\n        //         if (order[i].price >= order[i-1].price){\n        //             tempOrder = order[i-1];\n        //             order[i-1] = order[i];\n        //             order[i] = tempOrder;\n        //         }\n        //     }\n        // } else if (side == Side.SELL){\n        //     Order memory tempOrder;\n        //     for(uint i=order.length-1; i=1; i--){\n        //         if (order[i].price <= order[i-1].price){\n        //             tempOrder = order[i-1];\n        //             order[i-1] = order[i];\n        //             order[i] = tempOrder;\n        //         }\n        //     }\n        // }\n\n        uint i = order.length > 0 ? order.length - 1 : 0;\n\n        //Bubble sort\n        if(side == Side.BUY){\n            Order memory tempOrder;\n            while (i>0){\n                if (order[i-1].price > order[i].price){\n                    break;\n                }\n                    tempOrder = order[i-1];\n                    order[i-1] = order[i];\n                    order[i] = tempOrder;\n                    i--;\n            }\n        } else if (side == Side.SELL){\n            Order memory tempOrder;\n            while (i>0){\n                if (order[i-1].price < order[i].price){\n                    break;\n                }\n                    tempOrder = order[i-1];\n                    order[i-1] = order[i];\n                    order[i] = tempOrder;\n                    i--;\n            }\n        }\n        nextOrderId++;\n\n    }\n}",
  "sourcePath": "/Users/Gui/dev/DEX-CryptoProject/contracts/DEX.sol",
  "compiler": {
    "name": "solc",
    "version": "0.8.0+commit.c7dfd78e.Emscripten.clang"
  },
  "schemaVersion": "3.4.0",
  "updatedAt": "2021-05-08T13:34:46.960Z",
  "networkType": "ethereum",
  "devdoc": {
    "kind": "dev",
    "methods": {
      "owner()": {
        "details": "Returns the address of the current owner."
      },
      "renounceOwnership()": {
        "details": "Leaves the contract without owner. It will not be possible to call `onlyOwner` functions anymore. Can only be called by the current owner. NOTE: Renouncing ownership will leave the contract without an owner, thereby removing any functionality that is only available to the owner."
      },
      "transferOwnership(address)": {
        "details": "Transfers ownership of the contract to a new account (`newOwner`). Can only be called by the current owner."
      }
    },
    "version": 1
  },
  "userdoc": {
    "kind": "user",
    "methods": {},
    "version": 1
  }
}